{
  "_format": "hh-sol-artifact-1",
  "contractName": "Bounty",
  "sourceName": "contracts/Bounty.sol",
  "abi": [
    {
      "inputs": [],
      "stateMutability": "nonpayable",
      "type": "constructor"
    },
    {
      "anonymous": false,
      "inputs": [
        {
          "indexed": false,
          "internalType": "address payable",
          "name": "_repoContributor",
          "type": "address"
        }
      ],
      "name": "BountyAwarded",
      "type": "event"
    },
    {
      "inputs": [
        {
          "internalType": "address payable",
          "name": "_repoContributor",
          "type": "address"
        }
      ],
      "name": "awardBounty",
      "outputs": [],
      "stateMutability": "payable",
      "type": "function"
    },
    {
      "inputs": [],
      "name": "owner",
      "outputs": [
        {
          "internalType": "address",
          "name": "",
          "type": "address"
        }
      ],
      "stateMutability": "view",
      "type": "function"
    }
  ],
  "bytecode": "0x608060405234801561001057600080fd5b50600080546001600160a01b031916331790556102b6806100326000396000f3fe6080604052600436106100295760003560e01c80636021fe031461002e5780638da5cb5b14610043575b600080fd5b61004161003c36600461017e565b61006e565b005b34801561004f57600080fd5b5061005861016f565b60405161006591906101af565b60405180910390f35b600034116100975760405162461bcd60e51b815260040161008e90610211565b60405180910390fd5b33313411156100b85760405162461bcd60e51b815260040161008e906101c3565b6000816001600160a01b0316346040516100d1906101ac565b60006040518083038185875af1925050503d806000811461010e576040519150601f19603f3d011682016040523d82523d6000602084013e610113565b606091505b50509050806101345760405162461bcd60e51b815260040161008e90610254565b7f5bee765fa0b9a216dfb3a1e19afb7b59caafee0664df1cf1061baea4f03904378260405161016391906101af565b60405180910390a15050565b6000546001600160a01b031681565b60006020828403121561018f578081fd5b81356001600160a01b03811681146101a5578182fd5b9392505050565b90565b6001600160a01b0391909116815260200190565b6020808252602e908201527f4e6f7420656e6f7567682062616c616e63652070726573656e7420746f20617760408201526d6172642074686520626f756e747960901b606082015260800190565b60208082526023908201527f426f756e74792068617320746f2067726561746572207468616e20302065746860408201526265727360e81b606082015260800190565b602080825260129082015271151c985b9cd858dd1a5bdb8819985a5b195960721b60408201526060019056fea264697066735822122022832117e0e17ebca5d137e85d6730f2a28656dc8ba2ea5a3f53fe4654cf803b64736f6c63430008000033",
  "linkReferences": {},
  "deployedLinkReferences": {}
}